{
  "_format": "hh-sol-artifact-1",
  "contractName": "NFT",
  "sourceName": "contracts/NFT.sol",
  "abi": [
    {
      "inputs": [],
      "stateMutability": "nonpayable",
      "type": "constructor"
    },
    {
      "inputs": [],
      "name": "ApprovalCallerNotOwnerNorApproved",
      "type": "error"
    },
    {
      "inputs": [],
      "name": "ApprovalQueryForNonexistentToken",
      "type": "error"
    },
    {
      "inputs": [],
      "name": "BalanceQueryForZeroAddress",
      "type": "error"
    },
    {
      "inputs": [],
      "name": "MintERC2309QuantityExceedsLimit",
      "type": "error"
    },
    {
      "inputs": [],
      "name": "MintToZeroAddress",
      "type": "error"
    },
    {
      "inputs": [],
      "name": "MintZeroQuantity",
      "type": "error"
    },
    {
      "inputs": [],
      "name": "OwnerQueryForNonexistentToken",
      "type": "error"
    },
    {
      "inputs": [],
      "name": "OwnershipNotInitializedForExtraData",
      "type": "error"
    },
    {
      "inputs": [],
      "name": "TransferCallerNotOwnerNorApproved",
      "type": "error"
    },
    {
      "inputs": [],
      "name": "TransferFromIncorrectOwner",
      "type": "error"
    },
    {
      "inputs": [],
      "name": "TransferToNonERC721ReceiverImplementer",
      "type": "error"
    },
    {
      "inputs": [],
      "name": "TransferToZeroAddress",
      "type": "error"
    },
    {
      "inputs": [],
      "name": "URIQueryForNonexistentToken",
      "type": "error"
    },
    {
      "anonymous": false,
      "inputs": [
        {
          "indexed": true,
          "internalType": "address",
          "name": "owner",
          "type": "address"
        },
        {
          "indexed": true,
          "internalType": "address",
          "name": "approved",
          "type": "address"
        },
        {
          "indexed": true,
          "internalType": "uint256",
          "name": "tokenId",
          "type": "uint256"
        }
      ],
      "name": "Approval",
      "type": "event"
    },
    {
      "anonymous": false,
      "inputs": [
        {
          "indexed": true,
          "internalType": "address",
          "name": "owner",
          "type": "address"
        },
        {
          "indexed": true,
          "internalType": "address",
          "name": "operator",
          "type": "address"
        },
        {
          "indexed": false,
          "internalType": "bool",
          "name": "approved",
          "type": "bool"
        }
      ],
      "name": "ApprovalForAll",
      "type": "event"
    },
    {
      "anonymous": false,
      "inputs": [
        {
          "indexed": true,
          "internalType": "uint256",
          "name": "fromTokenId",
          "type": "uint256"
        },
        {
          "indexed": false,
          "internalType": "uint256",
          "name": "toTokenId",
          "type": "uint256"
        },
        {
          "indexed": true,
          "internalType": "address",
          "name": "from",
          "type": "address"
        },
        {
          "indexed": true,
          "internalType": "address",
          "name": "to",
          "type": "address"
        }
      ],
      "name": "ConsecutiveTransfer",
      "type": "event"
    },
    {
      "anonymous": false,
      "inputs": [
        {
          "indexed": true,
          "internalType": "address",
          "name": "previousOwner",
          "type": "address"
        },
        {
          "indexed": true,
          "internalType": "address",
          "name": "newOwner",
          "type": "address"
        }
      ],
      "name": "OwnershipTransferred",
      "type": "event"
    },
    {
      "anonymous": false,
      "inputs": [
        {
          "indexed": true,
          "internalType": "address",
          "name": "from",
          "type": "address"
        },
        {
          "indexed": true,
          "internalType": "address",
          "name": "to",
          "type": "address"
        },
        {
          "indexed": true,
          "internalType": "uint256",
          "name": "tokenId",
          "type": "uint256"
        }
      ],
      "name": "Transfer",
      "type": "event"
    },
    {
      "inputs": [
        {
          "internalType": "address",
          "name": "to",
          "type": "address"
        },
        {
          "internalType": "uint256",
          "name": "tokenId",
          "type": "uint256"
        }
      ],
      "name": "approve",
      "outputs": [],
      "stateMutability": "payable",
      "type": "function"
    },
    {
      "inputs": [
        {
          "internalType": "address",
          "name": "owner",
          "type": "address"
        }
      ],
      "name": "balanceOf",
      "outputs": [
        {
          "internalType": "uint256",
          "name": "",
          "type": "uint256"
        }
      ],
      "stateMutability": "view",
      "type": "function"
    },
    {
      "inputs": [
        {
          "internalType": "uint256",
          "name": "tokenId",
          "type": "uint256"
        }
      ],
      "name": "getApproved",
      "outputs": [
        {
          "internalType": "address",
          "name": "",
          "type": "address"
        }
      ],
      "stateMutability": "view",
      "type": "function"
    },
    {
      "inputs": [
        {
          "internalType": "address",
          "name": "owner",
          "type": "address"
        },
        {
          "internalType": "address",
          "name": "operator",
          "type": "address"
        }
      ],
      "name": "isApprovedForAll",
      "outputs": [
        {
          "internalType": "bool",
          "name": "",
          "type": "bool"
        }
      ],
      "stateMutability": "view",
      "type": "function"
    },
    {
      "inputs": [
        {
          "internalType": "address",
          "name": "reciever",
          "type": "address"
        },
        {
          "internalType": "uint256",
          "name": "quantity",
          "type": "uint256"
        }
      ],
      "name": "mint",
      "outputs": [],
      "stateMutability": "nonpayable",
      "type": "function"
    },
    {
      "inputs": [],
      "name": "name",
      "outputs": [
        {
          "internalType": "string",
          "name": "",
          "type": "string"
        }
      ],
      "stateMutability": "view",
      "type": "function"
    },
    {
      "inputs": [],
      "name": "owner",
      "outputs": [
        {
          "internalType": "address",
          "name": "",
          "type": "address"
        }
      ],
      "stateMutability": "view",
      "type": "function"
    },
    {
      "inputs": [
        {
          "internalType": "uint256",
          "name": "tokenId",
          "type": "uint256"
        }
      ],
      "name": "ownerOf",
      "outputs": [
        {
          "internalType": "address",
          "name": "",
          "type": "address"
        }
      ],
      "stateMutability": "view",
      "type": "function"
    },
    {
      "inputs": [
        {
          "internalType": "uint256",
          "name": "tokenId",
          "type": "uint256"
        }
      ],
      "name": "promptDescription",
      "outputs": [
        {
          "internalType": "string",
          "name": "",
          "type": "string"
        }
      ],
      "stateMutability": "view",
      "type": "function"
    },
    {
      "inputs": [],
      "name": "renounceOwnership",
      "outputs": [],
      "stateMutability": "nonpayable",
      "type": "function"
    },
    {
      "inputs": [
        {
          "internalType": "address",
          "name": "from",
          "type": "address"
        },
        {
          "internalType": "address",
          "name": "to",
          "type": "address"
        },
        {
          "internalType": "uint256",
          "name": "tokenId",
          "type": "uint256"
        }
      ],
      "name": "safeTransferFrom",
      "outputs": [],
      "stateMutability": "payable",
      "type": "function"
    },
    {
      "inputs": [
        {
          "internalType": "address",
          "name": "from",
          "type": "address"
        },
        {
          "internalType": "address",
          "name": "to",
          "type": "address"
        },
        {
          "internalType": "uint256",
          "name": "tokenId",
          "type": "uint256"
        },
        {
          "internalType": "bytes",
          "name": "_data",
          "type": "bytes"
        }
      ],
      "name": "safeTransferFrom",
      "outputs": [],
      "stateMutability": "payable",
      "type": "function"
    },
    {
      "inputs": [
        {
          "internalType": "address",
          "name": "operator",
          "type": "address"
        },
        {
          "internalType": "bool",
          "name": "approved",
          "type": "bool"
        }
      ],
      "name": "setApprovalForAll",
      "outputs": [],
      "stateMutability": "nonpayable",
      "type": "function"
    },
    {
      "inputs": [
        {
          "internalType": "bytes4",
          "name": "interfaceId",
          "type": "bytes4"
        }
      ],
      "name": "supportsInterface",
      "outputs": [
        {
          "internalType": "bool",
          "name": "",
          "type": "bool"
        }
      ],
      "stateMutability": "view",
      "type": "function"
    },
    {
      "inputs": [],
      "name": "symbol",
      "outputs": [
        {
          "internalType": "string",
          "name": "",
          "type": "string"
        }
      ],
      "stateMutability": "view",
      "type": "function"
    },
    {
      "inputs": [
        {
          "internalType": "uint256",
          "name": "tokenId",
          "type": "uint256"
        }
      ],
      "name": "tokenURI",
      "outputs": [
        {
          "internalType": "string",
          "name": "",
          "type": "string"
        }
      ],
      "stateMutability": "view",
      "type": "function"
    },
    {
      "inputs": [],
      "name": "totalSupply",
      "outputs": [
        {
          "internalType": "uint256",
          "name": "",
          "type": "uint256"
        }
      ],
      "stateMutability": "view",
      "type": "function"
    },
    {
      "inputs": [
        {
          "internalType": "address",
          "name": "from",
          "type": "address"
        },
        {
          "internalType": "address",
          "name": "to",
          "type": "address"
        },
        {
          "internalType": "uint256",
          "name": "tokenId",
          "type": "uint256"
        }
      ],
      "name": "transferFrom",
      "outputs": [],
      "stateMutability": "payable",
      "type": "function"
    },
    {
      "inputs": [
        {
          "internalType": "address",
          "name": "newOwner",
          "type": "address"
        }
      ],
      "name": "transferOwnership",
      "outputs": [],
      "stateMutability": "nonpayable",
      "type": "function"
    }
  ],
  "bytecode": "0x608060405260056009556040518060a001604052806040518060800160405280604c815260200162002818604c91398152602001604051806080016040528060518152602001620028646051913981526020016040518060800160405280605e8152602001620028b5605e913981526020016040518060a00160405280607d815260200162002913607d91398152602001604051806080016040528060428152602001620027d660429139815250600a906005620000bf9291906200027d565b50348015620000cd57600080fd5b506040518060400160405280600581526020017f4d794e46540000000000000000000000000000000000000000000000000000008152506040518060400160405280600481526020017f4d4e465400000000000000000000000000000000000000000000000000000000815250816002908051906020019062000152929190620002e4565b5080600390805190602001906200016b929190620002e4565b506200017c620001aa60201b60201c565b6000819055505050620001a462000198620001af60201b60201c565b620001b760201b60201c565b62000467565b600090565b600033905090565b6000600860009054906101000a900473ffffffffffffffffffffffffffffffffffffffff16905081600860006101000a81548173ffffffffffffffffffffffffffffffffffffffff021916908373ffffffffffffffffffffffffffffffffffffffff1602179055508173ffffffffffffffffffffffffffffffffffffffff168173ffffffffffffffffffffffffffffffffffffffff167f8be0079c531659141344cd1fd0a4f28419497f9722a3daafe3b4186f6b6457e060405160405180910390a35050565b828054828255906000526020600020908101928215620002d1579160200282015b82811115620002d0578251829080519060200190620002bf929190620002e4565b50916020019190600101906200029e565b5b509050620002e0919062000375565b5090565b828054620002f29062000402565b90600052602060002090601f01602090048101928262000316576000855562000362565b82601f106200033157805160ff191683800117855562000362565b8280016001018555821562000362579182015b828111156200036157825182559160200191906001019062000344565b5b5090506200037191906200039d565b5090565b5b808211156200039957600081816200038f9190620003bc565b5060010162000376565b5090565b5b80821115620003b85760008160009055506001016200039e565b5090565b508054620003ca9062000402565b6000825580601f10620003de5750620003ff565b601f016020900490600052602060002090810190620003fe91906200039d565b5b50565b600060028204905060018216806200041b57607f821691505b6020821081141562000432576200043162000438565b5b50919050565b7f4e487b7100000000000000000000000000000000000000000000000000000000600052602260045260246000fd5b61235f80620004776000396000f3fe6080604052600436106101145760003560e01c806370a08231116100a0578063a22cb46511610064578063a22cb4651461038a578063b88d4fde146103b3578063c87b56dd146103cf578063e985e9c51461040c578063f2fde38b1461044957610114565b806370a08231146102a3578063715018a6146102e05780638da5cb5b146102f75780638e5a86381461032257806395d89b411461035f57610114565b806318160ddd116100e757806318160ddd146101da57806323b872dd1461020557806340c10f191461022157806342842e0e1461024a5780636352211e1461026657610114565b806301ffc9a71461011957806306fdde0314610156578063081812fc14610181578063095ea7b3146101be575b600080fd5b34801561012557600080fd5b50610140600480360381019061013b9190611baa565b610472565b60405161014d9190611e6a565b60405180910390f35b34801561016257600080fd5b5061016b610504565b6040516101789190611e85565b60405180910390f35b34801561018d57600080fd5b506101a860048036038101906101a39190611bfc565b610596565b6040516101b59190611e03565b60405180910390f35b6101d860048036038101906101d39190611b6e565b610615565b005b3480156101e657600080fd5b506101ef610759565b6040516101fc9190611f47565b60405180910390f35b61021f600480360381019061021a9190611a68565b610770565b005b34801561022d57600080fd5b5061024860048036038101906102439190611b6e565b610a95565b005b610264600480360381019061025f9190611a68565b610b66565b005b34801561027257600080fd5b5061028d60048036038101906102889190611bfc565b610b86565b60405161029a9190611e03565b60405180910390f35b3480156102af57600080fd5b506102ca60048036038101906102c59190611a03565b610b98565b6040516102d79190611f47565b60405180910390f35b3480156102ec57600080fd5b506102f5610c51565b005b34801561030357600080fd5b5061030c610c65565b6040516103199190611e03565b60405180910390f35b34801561032e57600080fd5b5061034960048036038101906103449190611bfc565b610c8f565b6040516103569190611e85565b60405180910390f35b34801561036b57600080fd5b50610374610d65565b6040516103819190611e85565b60405180910390f35b34801561039657600080fd5b506103b160048036038101906103ac9190611b32565b610df7565b005b6103cd60048036038101906103c89190611ab7565b610f02565b005b3480156103db57600080fd5b506103f660048036038101906103f19190611bfc565b610f75565b6040516104039190611e85565b60405180910390f35b34801561041857600080fd5b50610433600480360381019061042e9190611a2c565b611060565b6040516104409190611e6a565b60405180910390f35b34801561045557600080fd5b50610470600480360381019061046b9190611a03565b6110f4565b005b60006301ffc9a760e01b827bffffffffffffffffffffffffffffffffffffffffffffffffffffffff191614806104cd57506380ac58cd60e01b827bffffffffffffffffffffffffffffffffffffffffffffffffffffffff1916145b806104fd5750635b5e139f60e01b827bffffffffffffffffffffffffffffffffffffffffffffffffffffffff1916145b9050919050565b606060028054610513906120b1565b80601f016020809104026020016040519081016040528092919081815260200182805461053f906120b1565b801561058c5780601f106105615761010080835404028352916020019161058c565b820191906000526020600020905b81548152906001019060200180831161056f57829003601f168201915b5050505050905090565b60006105a182611178565b6105d7576040517fcf4700e400000000000000000000000000000000000000000000000000000000815260040160405180910390fd5b6006600083815260200190815260200160002060000160009054906101000a900473ffffffffffffffffffffffffffffffffffffffff169050919050565b600061062082610b86565b90508073ffffffffffffffffffffffffffffffffffffffff166106416111d7565b73ffffffffffffffffffffffffffffffffffffffff16146106a45761066d816106686111d7565b611060565b6106a3576040517fcfb3b94200000000000000000000000000000000000000000000000000000000815260040160405180910390fd5b5b826006600084815260200190815260200160002060000160006101000a81548173ffffffffffffffffffffffffffffffffffffffff021916908373ffffffffffffffffffffffffffffffffffffffff160217905550818373ffffffffffffffffffffffffffffffffffffffff168273ffffffffffffffffffffffffffffffffffffffff167f8c5be1e5ebec7d5bd14f71427d1e84f3dd0314c0f7b2291e5b200ac8c7c3b92560405160405180910390a4505050565b60006107636111df565b6001546000540303905090565b600061077b826111e4565b90508373ffffffffffffffffffffffffffffffffffffffff168173ffffffffffffffffffffffffffffffffffffffff16146107e2576040517fa114810000000000000000000000000000000000000000000000000000000000815260040160405180910390fd5b6000806107ee846112b2565b9150915061080481876107ff6111d7565b6112d9565b61085057610819866108146111d7565b611060565b61084f576040517f59c896be00000000000000000000000000000000000000000000000000000000815260040160405180910390fd5b5b600073ffffffffffffffffffffffffffffffffffffffff168573ffffffffffffffffffffffffffffffffffffffff1614156108b7576040517fea553b3400000000000000000000000000000000000000000000000000000000815260040160405180910390fd5b6108c4868686600161131d565b80156108cf57600082555b600560008773ffffffffffffffffffffffffffffffffffffffff1673ffffffffffffffffffffffffffffffffffffffff168152602001908152602001600020600081546001900391905081905550600560008673ffffffffffffffffffffffffffffffffffffffff1673ffffffffffffffffffffffffffffffffffffffff168152602001908152602001600020600081546001019190508190555061099d85610979888887611323565b7c02000000000000000000000000000000000000000000000000000000001761134b565b600460008681526020019081526020016000208190555060007c020000000000000000000000000000000000000000000000000000000084161415610a25576000600185019050600060046000838152602001908152602001600020541415610a23576000548114610a22578360046000838152602001908152602001600020819055505b5b505b838573ffffffffffffffffffffffffffffffffffffffff168773ffffffffffffffffffffffffffffffffffffffff167fddf252ad1be2c89b69c2b068fc378daa952ba7f163c4a11628f55a4df523b3ef60405160405180910390a4610a8d8686866001611376565b505050505050565b610a9d61137c565b600073ffffffffffffffffffffffffffffffffffffffff168273ffffffffffffffffffffffffffffffffffffffff161415610b0d576040517f08c379a0000000000000000000000000000000000000000000000000000000008152600401610b0490611f07565b60405180910390fd5b600954610b18610759565b10610b58576040517f08c379a0000000000000000000000000000000000000000000000000000000008152600401610b4f90611ec7565b60405180910390fd5b610b6282826113fa565b5050565b610b8183838360405180602001604052806000815250610f02565b505050565b6000610b91826111e4565b9050919050565b60008073ffffffffffffffffffffffffffffffffffffffff168273ffffffffffffffffffffffffffffffffffffffff161415610c00576040517f8f4eb60400000000000000000000000000000000000000000000000000000000815260040160405180910390fd5b67ffffffffffffffff600560008473ffffffffffffffffffffffffffffffffffffffff1673ffffffffffffffffffffffffffffffffffffffff16815260200190815260200160002054169050919050565b610c5961137c565b610c636000611418565b565b6000600860009054906101000a900473ffffffffffffffffffffffffffffffffffffffff16905090565b6060600a8281548110610ccb577f4e487b7100000000000000000000000000000000000000000000000000000000600052603260045260246000fd5b906000526020600020018054610ce0906120b1565b80601f0160208091040260200160405190810160405280929190818152602001828054610d0c906120b1565b8015610d595780601f10610d2e57610100808354040283529160200191610d59565b820191906000526020600020905b815481529060010190602001808311610d3c57829003601f168201915b50505050509050919050565b606060038054610d74906120b1565b80601f0160208091040260200160405190810160405280929190818152602001828054610da0906120b1565b8015610ded5780601f10610dc257610100808354040283529160200191610ded565b820191906000526020600020905b815481529060010190602001808311610dd057829003601f168201915b5050505050905090565b8060076000610e046111d7565b73ffffffffffffffffffffffffffffffffffffffff1673ffffffffffffffffffffffffffffffffffffffff16815260200190815260200160002060008473ffffffffffffffffffffffffffffffffffffffff1673ffffffffffffffffffffffffffffffffffffffff16815260200190815260200160002060006101000a81548160ff0219169083151502179055508173ffffffffffffffffffffffffffffffffffffffff16610eb16111d7565b73ffffffffffffffffffffffffffffffffffffffff167f17307eab39ab6107e8899845ad3d59bd9653f200f220920489ca2b5937696c3183604051610ef69190611e6a565b60405180910390a35050565b610f0d848484610770565b60008373ffffffffffffffffffffffffffffffffffffffff163b14610f6f57610f38848484846114de565b610f6e576040517fd1a57ed600000000000000000000000000000000000000000000000000000000815260040160405180910390fd5b5b50505050565b6060610f8082611178565b610fbf576040517f08c379a0000000000000000000000000000000000000000000000000000000008152600401610fb690611f27565b60405180910390fd5b6000610fc961163e565b90506000610fd68461165e565b905060006040518060400160405280600481526020017f2e706e670000000000000000000000000000000000000000000000000000000081525090506000835114156110315760405180602001604052806000815250611056565b82828260405160200161104693929190611dc7565b6040516020818303038152906040525b9350505050919050565b6000600760008473ffffffffffffffffffffffffffffffffffffffff1673ffffffffffffffffffffffffffffffffffffffff16815260200190815260200160002060008373ffffffffffffffffffffffffffffffffffffffff1673ffffffffffffffffffffffffffffffffffffffff16815260200190815260200160002060009054906101000a900460ff16905092915050565b6110fc61137c565b600073ffffffffffffffffffffffffffffffffffffffff168173ffffffffffffffffffffffffffffffffffffffff16141561116c576040517f08c379a000000000000000000000000000000000000000000000000000000000815260040161116390611ea7565b60405180910390fd5b61117581611418565b50565b6000816111836111df565b11158015611192575060005482105b80156111d0575060007c0100000000000000000000000000000000000000000000000000000000600460008581526020019081526020016000205416145b9050919050565b600033905090565b600090565b600080829050806111f36111df565b1161127b5760005481101561127a5760006004600083815260200190815260200160002054905060007c010000000000000000000000000000000000000000000000000000000082161415611278575b600081141561126e576004600083600190039350838152602001908152602001600020549050611243565b80925050506112ad565b505b5b6040517fdf2d9b4200000000000000000000000000000000000000000000000000000000815260040160405180910390fd5b919050565b60008060006006600085815260200190815260200160002090508092508254915050915091565b600073ffffffffffffffffffffffffffffffffffffffff8316925073ffffffffffffffffffffffffffffffffffffffff821691508382148383141790509392505050565b50505050565b60008060e883901c905060e861133a8686846116b7565b62ffffff16901b9150509392505050565b600073ffffffffffffffffffffffffffffffffffffffff83169250814260a01b178317905092915050565b50505050565b6113846116c0565b73ffffffffffffffffffffffffffffffffffffffff166113a2610c65565b73ffffffffffffffffffffffffffffffffffffffff16146113f8576040517f08c379a00000000000000000000000000000000000000000000000000000000081526004016113ef90611ee7565b60405180910390fd5b565b6114148282604051806020016040528060008152506116c8565b5050565b6000600860009054906101000a900473ffffffffffffffffffffffffffffffffffffffff16905081600860006101000a81548173ffffffffffffffffffffffffffffffffffffffff021916908373ffffffffffffffffffffffffffffffffffffffff1602179055508173ffffffffffffffffffffffffffffffffffffffff168173ffffffffffffffffffffffffffffffffffffffff167f8be0079c531659141344cd1fd0a4f28419497f9722a3daafe3b4186f6b6457e060405160405180910390a35050565b60008373ffffffffffffffffffffffffffffffffffffffff1663150b7a026115046111d7565b8786866040518563ffffffff1660e01b81526004016115269493929190611e1e565b602060405180830381600087803b15801561154057600080fd5b505af192505050801561157157506040513d601f19601f8201168201806040525081019061156e9190611bd3565b60015b6115eb573d80600081146115a1576040519150601f19603f3d011682016040523d82523d6000602084013e6115a6565b606091505b506000815114156115e3576040517fd1a57ed600000000000000000000000000000000000000000000000000000000815260040160405180910390fd5b805181602001fd5b63150b7a0260e01b7bffffffffffffffffffffffffffffffffffffffffffffffffffffffff1916817bffffffffffffffffffffffffffffffffffffffffffffffffffffffff191614915050949350505050565b60606040518060600160405280602e81526020016122fc602e9139905090565b606060a060405101806040526020810391506000825281835b6001156116a257600184039350600a81066030018453600a810490508061169d576116a2565b611677565b50828103602084039350808452505050919050565b60009392505050565b600033905090565b6116d28383611765565b60008373ffffffffffffffffffffffffffffffffffffffff163b1461176057600080549050600083820390505b61171260008683806001019450866114de565b611748576040517fd1a57ed600000000000000000000000000000000000000000000000000000000815260040160405180910390fd5b8181106116ff57816000541461175d57600080fd5b50505b505050565b60008054905060008214156117a6576040517fb562e8dd00000000000000000000000000000000000000000000000000000000815260040160405180910390fd5b6117b3600084838561131d565b600160406001901b178202600560008573ffffffffffffffffffffffffffffffffffffffff1673ffffffffffffffffffffffffffffffffffffffff1681526020019081526020016000206000828254019250508190555061182a8361181b6000866000611323565b61182485611922565b1761134b565b6004600083815260200190815260200160002081905550600080838301905073ffffffffffffffffffffffffffffffffffffffff85169150828260007fddf252ad1be2c89b69c2b068fc378daa952ba7f163c4a11628f55a4df523b3ef600080a4600183015b8181146118cb57808360007fddf252ad1be2c89b69c2b068fc378daa952ba7f163c4a11628f55a4df523b3ef600080a4600181019050611890565b506000821415611907576040517f2e07630000000000000000000000000000000000000000000000000000000000815260040160405180910390fd5b80600081905550505061191d6000848385611376565b505050565b60006001821460e11b9050919050565b600061194561194084611f87565b611f62565b90508281526020810184848401111561195d57600080fd5b61196884828561206f565b509392505050565b60008135905061197f8161229f565b92915050565b600081359050611994816122b6565b92915050565b6000813590506119a9816122cd565b92915050565b6000815190506119be816122cd565b92915050565b600082601f8301126119d557600080fd5b81356119e5848260208601611932565b91505092915050565b6000813590506119fd816122e4565b92915050565b600060208284031215611a1557600080fd5b6000611a2384828501611970565b91505092915050565b60008060408385031215611a3f57600080fd5b6000611a4d85828601611970565b9250506020611a5e85828601611970565b9150509250929050565b600080600060608486031215611a7d57600080fd5b6000611a8b86828701611970565b9350506020611a9c86828701611970565b9250506040611aad868287016119ee565b9150509250925092565b60008060008060808587031215611acd57600080fd5b6000611adb87828801611970565b9450506020611aec87828801611970565b9350506040611afd878288016119ee565b925050606085013567ffffffffffffffff811115611b1a57600080fd5b611b26878288016119c4565b91505092959194509250565b60008060408385031215611b4557600080fd5b6000611b5385828601611970565b9250506020611b6485828601611985565b9150509250929050565b60008060408385031215611b8157600080fd5b6000611b8f85828601611970565b9250506020611ba0858286016119ee565b9150509250929050565b600060208284031215611bbc57600080fd5b6000611bca8482850161199a565b91505092915050565b600060208284031215611be557600080fd5b6000611bf3848285016119af565b91505092915050565b600060208284031215611c0e57600080fd5b6000611c1c848285016119ee565b91505092915050565b611c2e81611ffb565b82525050565b611c3d8161200d565b82525050565b6000611c4e82611fb8565b611c588185611fce565b9350611c6881856020860161207e565b611c7181612172565b840191505092915050565b6000611c8782611fc3565b611c918185611fdf565b9350611ca181856020860161207e565b611caa81612172565b840191505092915050565b6000611cc082611fc3565b611cca8185611ff0565b9350611cda81856020860161207e565b80840191505092915050565b6000611cf3602683611fdf565b9150611cfe82612183565b604082019050919050565b6000611d16601283611fdf565b9150611d21826121d2565b602082019050919050565b6000611d39602083611fdf565b9150611d44826121fb565b602082019050919050565b6000611d5c600f83611fdf565b9150611d6782612224565b602082019050919050565b6000611d7f600f83611fdf565b9150611d8a8261224d565b602082019050919050565b6000611da2600183611ff0565b9150611dad82612276565b600182019050919050565b611dc181612065565b82525050565b6000611dd38286611cb5565b9150611dde82611d95565b9150611dea8285611cb5565b9150611df68284611cb5565b9150819050949350505050565b6000602082019050611e186000830184611c25565b92915050565b6000608082019050611e336000830187611c25565b611e406020830186611c25565b611e4d6040830185611db8565b8181036060830152611e5f8184611c43565b905095945050505050565b6000602082019050611e7f6000830184611c34565b92915050565b60006020820190508181036000830152611e9f8184611c7c565b905092915050565b60006020820190508181036000830152611ec081611ce6565b9050919050565b60006020820190508181036000830152611ee081611d09565b9050919050565b60006020820190508181036000830152611f0081611d2c565b9050919050565b60006020820190508181036000830152611f2081611d4f565b9050919050565b60006020820190508181036000830152611f4081611d72565b9050919050565b6000602082019050611f5c6000830184611db8565b92915050565b6000611f6c611f7d565b9050611f7882826120e3565b919050565b6000604051905090565b600067ffffffffffffffff821115611fa257611fa1612143565b5b611fab82612172565b9050602081019050919050565b600081519050919050565b600081519050919050565b600082825260208201905092915050565b600082825260208201905092915050565b600081905092915050565b600061200682612045565b9050919050565b60008115159050919050565b60007fffffffff0000000000000000000000000000000000000000000000000000000082169050919050565b600073ffffffffffffffffffffffffffffffffffffffff82169050919050565b6000819050919050565b82818337600083830152505050565b60005b8381101561209c578082015181840152602081019050612081565b838111156120ab576000848401525b50505050565b600060028204905060018216806120c957607f821691505b602082108114156120dd576120dc612114565b5b50919050565b6120ec82612172565b810181811067ffffffffffffffff8211171561210b5761210a612143565b5b80604052505050565b7f4e487b7100000000000000000000000000000000000000000000000000000000600052602260045260246000fd5b7f4e487b7100000000000000000000000000000000000000000000000000000000600052604160045260246000fd5b6000601f19601f8301169050919050565b7f4f776e61626c653a206e6577206f776e657220697320746865207a65726f206160008201527f6464726573730000000000000000000000000000000000000000000000000000602082015250565b7f4d6178696d756d204e4654204d696e7465640000000000000000000000000000600082015250565b7f4f776e61626c653a2063616c6c6572206973206e6f7420746865206f776e6572600082015250565b7f496e76616c696420416464726573730000000000000000000000000000000000600082015250565b7f4e6f20546f6b656e204578697374730000000000000000000000000000000000600082015250565b7f2f00000000000000000000000000000000000000000000000000000000000000600082015250565b6122a881611ffb565b81146122b357600080fd5b50565b6122bf8161200d565b81146122ca57600080fd5b50565b6122d681612019565b81146122e157600080fd5b50565b6122ed81612065565b81146122f857600080fd5b5056fe516d5a67737278634a48416742434c43434d4144696f66336d63646f314b317079724a464c7073686e4c34636836a26469706673582212208891bf19007df6cd90243324790811ba6f268c4a99b5615ad70d2a42a10d56c964736f6c63430008040033696d616765206f662061206d65736d6572697a696e67207363656e6520696e7370697265642062792062696f6c756d696e657363656e636520696e206e6174757265696d616765206f662061207768696d736963616c20637265617475726520627920636f6d62696e696e67206665617475726573206f662074776f20646966666572656e7420616e696d616c73696d616765206f66206120444a206d6f6e6b6579207769746820726f626f746963206c696d62732c2061206c617365722d65796564206f776c20616e64206f7468657220706172747920616e696d616c73696d616765206f6620612070756e6b20726f636b20706f72637570696e6520776974682076696272616e742c207370696b65642068616972206f722061207375726665722d6475646520747572746c6520726964696e6720612077617665696d616765206f662061206372696d652d6669676874696e6720737175697272656c2077697468206a65747061636b2d70726f70656c6c6564206163726f626174696373206f722061206361706564206368616d656c656f6e20746861742063616e20626c656e6420696e746f20616e7920656e7669726f6e6d656e74",
  "linkReferences": {},
  "deployedLinkReferences": {}
}